S00F0000686333642D746D2E73726563A5
S113000033C000004CC000004AC0000048C00000DB
S113001046C0000044C0000042C0000040C00000D0
S11300203EC000003CC000003AC0000038C00000E0
S113003036C0000034C0000032C0000030C00000F0
S11300402EC000002CC000002AC0000028C0000000
S113005026C0000024C0000022C0000020C0000010
S11300601EC000001CC0000011241FBECFEFD8E04A
S1130070DEBFCDBF11E0A0E0B1E0EEEEF4E002C0DF
S113008005900D92A030B107D9F721E0A0E0B1E0CE
S113009001C01D92A030B207E1F704D226C2B0CF4E
S11300A0CF93DF931F92CDB7DEB780E0E4E6F0E0B4
S11300B004C09FEF90838F5F31968823D1F38091A2
S11300C06100833069F08FB78983F89489815F93E5
S11300D050E85093610053E0509361005F918FBFEB
S11300E00F90DF91CF9108950895DC0180E040E006
S11300F012C0FD01E40FF11D208190E009C0382FEA
S11301003227869530FF02C03CE8832726959F5FFF
S11301109830A8F34F5F461760F308958F929F922B
S1130120AF92BF92CF92DF92EF92FF920F931F9301
S1130130CF93DF937C016B015A01D22F4801012B2D
S113014019F40CEC2ED110C005E52BD1C0E00AC087
S1130150F401EC0FF11D00812D2FA501B601C7019B
S113016020D1CF5FC830A0F3DF91CF911F910F91C1
S1130170FF90EF90DF90CF90BF90AF909F908F90C3
S11301800895BF92CF92DF92EF92FF920F931F9345
S1130190CF93DF93EC017B016A01B22EA4D08130AE
S11301A061F02B2DA601B701CE01B8DF04E42B2D9D
S11301B0A601B701CE01F5D080E0DF91CF911F9168
S11301C00F91FF90EF90DF90CF90BF9008958F92A2
S11301D09F92AF92BF92CF92DF92EF92FF920F93D2
S11301E01F93CF93DF936C015B014A01D22F7BD025
S11301F08130B9F12D2FA401B501C6018FDF0EEBBB
S11302002D2FA401B501C601CCD0C0E00BC08701DD
S11302100C0F111D2D2FA401B501C6010CD1F8013D
S11302208083CF5FC93098F3F70170818181628147
S113023053814481358126819781872B862B852B99
S1130240842B832B822B892B49F068E0C7014DDF77
S1130250F7019085891721F082E003C083E001C093
S113026080E0DF91CF911F910F91FF90EF90DF908D
S1130270CF90BF90AF909F908F900895CF92DF92D0
S1130280EF92FF920F931F93CF93DF93CDB7DEB717
S113029029970FB6F894DEBF0FBECDBF6701FE01EC
S11302A031967F0194DF882321F0F60111821082B8
S11302B00BC08A8190E0982F88272981820F911D95
S11302C0F6019183808380E029960FB6F894DEBF0F
S11302D00FBECDBFDF91CF911F910F91FF90EF9093
S11302E0DF90CF900895CF93DF93DC01FB013FB7FC
S11302F08C91822B8C938081822B80839C91822F82
S1130300809598239C9398EC9A95F1F79081892392
S11303108083C7E1CA95F1F70000EA01988192232E
S1130320D2E4DA95F1F700C08C91822B8C93808112
S1130330282B208388EC8A95F1F73FBF81E0911147
S113034001C080E0DF91CF9108950F93FC019FB726
S11303508081822B8083DB018C91822B8C93808122
S1130360322F309583238083002329F0B2E0BA959D
S1130370F1F700C004C08AE18A95F1F700C08081DA
S1130380282B2083002329F0AAE1AA95F1F700C0C5
S113039001C000C09FBF81E0011101C080E00F9146
S11303A008959F92AF92BF92CF92DF92EF92FF9205
S11303B00F931F93CF93DF935C016B017A01122F8C
S11303C0D02F9FB6C1E008C00C2F0D23212FA70109
S11303D0B601C501BADFCC0FC111F6CF9FBEDF91C4
S11303E0CF911F910F91FF90EF90DF90CF90BF902E
S11303F0AF909F900895DC01FB013FB78C91822B55
S11304008C938081822B80838C91922F9095892369
S11304108C9300C080819823908300C000C00000AA
S1130420FA018081282381E009F480E0F4E1FA955F
S1130430F1F73FBF0895AF92BF92CF92DF92EF9250
S1130440FF920F931F93CF93DF935C016B017A01AB
S1130450122F0FB7C1E0D0E00AC0212FA701B601C7
S1130460C501C9DF8C9FC0011124D82BCC0FC11149
S1130470F4CF0FBF8D2FDF91CF911F910F91FF907C
S1130480EF90DF90CF90BF90AF900895089504C08F
S11304906150710981099109611571058105910501
S11304A0B9F70895CF93DF9300D0CDB7DEB7F8DD69
S11304B0EDDF1ADE00E010E021E043E250E064E208
S11304C070E085E290E05DDE6BE07BE882E090E046
S11304D0DEDFCE0101967C0121E043E250E064E2DC
S11104E070E085E290E0CADEE5CFF894FFCF2D
S9030000FC
